:020000040800F2
:10000000E0340020E9010008F1010008F3010008D4
:10001000F5010008F7010008F901000800000000E0
:10002000000000000000000000000000FB010008CC
:10003000FD01000800000000FF01000801020008A7
:10004000030200080302000803020008030200087C
:10005000030200080302000803020008030200086C
:10006000030200080302000803020008030200085C
:10007000030200080302000803020008030200084C
:10008000030200080302000803020008030200083C
:10009000030200080302000803020008030200082C
:1000A000030200080302000803020008030200081C
:1000B0006923000803020008030200080302000885
:1000C00003020008030200080302000803020008FC
:1000D00003020008030200080302000803020008EC
:1000E00003020008030200080302000803020008DC
:1000F00003020008030200080302000803020008CC
:10010000030200080302000803020008C9230008D4
:1001100003020008030200080302000803020008AB
:10012000030200080302000803020008030200089B
:10013000030200080302000803020008030200088B
:10014000030200080302000800F002F800F03CF887
:100150000AA090E8000C82448344AAF10107DA4522
:1001600001D100F031F8AFF2090EBAE80F0013F038
:10017000010F18BFFB1A43F001031847F468000091
:1001800014690000103A24BF78C878C1FAD8520721
:1001900024BF30C830C144BF04680C607047000001
:1001A0000023002400250026103A28BF78C1FBD880
:1001B000520728BF30C148BF0B6070471FB506F01B
:1001C00003FC1FBD10B510BD00F04FFB1146FFF73B
:1001D000F5FF03F055FA00F06DFB03B4FFF7F2FFF3
:1001E00003BC00F075FB0000094880470948004740
:1001F000FEE7FEE7FEE7FEE7FEE7FEE7FEE7FEE7D7
:10020000FEE7FEE704480549054A064B7047000033
:100210001921000849010008E01C0020E0340020FA
:10022000E01F0020E01F00202DE9F0410446704847
:10023000416941F4006141616E4DD120286000F0B8
:10024000DDF80020E860E16831B1A0694FF02236A6
:10025000B04204D1606850B96748BDE8F081B0F1A0
:10026000113F04D0B04202D04FF05A30F5E7606938
:100270004FF04437B0F1333F04D0B84202D05E486B
:10028000401EEAE75B4BE0693433B0F1553F0AD0DA
:1002900003F10408B0F1663F0AD0B0F1773F15D002
:1002A0005548801CD9E70222184600F07EF922E06A
:1002B0000222184600F079F9E1680222404608312E
:1002C00000F073F9E86840F0200013E002221846BD
:1002D00000F06BF9E16802224046083100F065F950
:1002E0004448E16802223C30103100F05EF9E868D1
:1002F00040F03000E8606069B84203D1E86840F03F
:100300004000E860A069B04209D1E86840F002000E
:10031000E860384802223030616800F046F9002079
:100320009BE7F0B50269016841B1816831B1110004
:1003300001D0D10704D03048401CF0BD2E48F0BD9C
:100340002B494969090504D52A4B1C681121A14391
:1003500002D02948C01CF0BD002104261CE004681E
:1003600054F821401C64056806EB81042D591D6476
:10037000DD6845F08005DD605D686D07FCD55D6872
:1003800045F004055D605D6C876847F821505D6C41
:100390008768891C921E3D51002AE0D10020F0BDE3
:1003A00010B5134C6069000512D51248026811217E
:1003B00091430DD1016841F480710160016821F021
:1003C0001101016000F01AF8606920F400606061BA
:1003D00010BD10B5052404700020087014201070A2
:1003E00004205070082090701120187010BD00007B
:1003F00000100240004002405C5A5A5AAA48016864
:100400000906FCD4416841F001014160704770B5B4
:10041000002301E0C3545B1C9342FBD300230BE099
:10042000CC5CD51AB4FBF5F605FB16441C44C55C40
:10043000065DC65405555B1C9342F1D3002070BD88
:1004400010B5002302E0CC5CC4545B1C9342FAD389
:10045000002010BD10B440EA01039B0702D010BC7D
:100460009200EDE793080DD010C95B1E10C010C9B3
:1004700010C051F8084B40F8084B51F8044C40F8B4
:10048000044CF1D112F0030203D008C9521E08C077
:10049000FBD110BC0020704770B5002404E0055D5E
:1004A0000E5D75401555641C9C42F8D3002070BD4C
:1004B00070B5002407E050F8245051F824607540CE
:1004C00042F82450641C9C42F5D3002070BD0022E9
:1004D000134601E08354521C8A42FBD3002070472C
:1004E0008A084FF0000307D008C0521E08C040F829
:1004F000083B40F8043CF7D111F0030102D008C0DA
:10050000491EFCD10020704770B5814211D10021F5
:100510000CE000EB810310F82140DD7800F8215059
:10052000DC705C789D785D709C70491C9142F0D3C2
:1005300012E000230EE001EB8305EC7800F8234085
:1005400000EB8304AE7866706D78A57011F82350C7
:10055000E5705B1C9342EED3002070BD00B5FFF741
:10056000D3FF002000BD30B5994207D1002308E039
:1005700050F8234052F82350AC4201D0012030BD46
:100580005B1C8B42F4D3002030BD30B5994205D1BD
:10059000002306E0C45CD55CAC4201D0012030BD34
:1005A0005B1C8B42F6D3002030BDFFB505460C46E0
:1005B000880702F003064FEA920720D07FB110228D
:1005C00021466846FFF73CFF0098286001982860A4
:1005D000029828600398286010347F1EEEE7B2006E
:1005E00021466846FFF72CFF68461EB102C8296005
:1005F000761EFBD104216846FFF772FF11E05FB160
:1006000001CC286001CC286054F8080B286054F80D
:10061000040C28607F1EF2E71EB101CC2860761E14
:10062000FAE7002004B0F0BDFFB504460D46880788
:100630004FEA920602F0030722D07EB128680090AC
:100640002868019028680290286803901022694663
:100650002046FFF7F5FE1034761EEEE7684603E00D
:10066000296840F82610761CB742F9D80146B20036
:100670002046FFF7E5FE04216846FFF731FF11E051
:100680005EB1286801C4286801C4286844F8080BD2
:10069000286844F8040C761EF2E71FB128687F1E14
:1006A00001C4FAE70020BDE70040024040EA010330
:1006B00010B59B070FD1042A0DD310C808C9121F0B
:1006C0009C42F8D020BA19BA884201D9012010BD45
:1006D0004FF0FF3010BD1AB1D30703D0521C07E012
:1006E000002010BD10F8013B11F8014B1B1B07D176
:1006F00010F8013B11F8014B1B1B01D1921EF1D1E7
:10070000184610BDCBB22AB101788B4203D0401CF1
:10071000521EF9D100207047032A40F2308010F0B9
:10072000030C00F0158011F8013BBCF1020F62448C
:1007300098BF11F801CB00F8013B38BF11F8013B1D
:10074000A2F1040298BF00F801CB38BF00F8013BCA
:1007500011F0030300F05780083AC0F0088051F808
:10076000043B083A51F804CBA0E80810F5E7121D45
:100770005CBF51F8043B40F8043BAFF30080D20764
:1007800024BF11F8013B11F801CB48BF11F8012B30
:1007900024BF00F8013B00F801CB48BF00F8012B53
:1007A000704702F0FF0343EA032242EA024200F0EC
:1007B00002B84FF0000200B5134694469646203921
:1007C00022BFA0E80C50A0E80C50B1F12001BFF40A
:1007D000F7AF090728BFA0E80C5048BF0CC05DF870
:1007E00004EB890028BF40F8042B08BF704748BFBE
:1007F00020F8022B11F0804F18BF00F8012B704732
:1008000070477047704710B5203AC0F00B80B1E8D0
:100810001850A0E81850B1E81850A0E81850203A35
:10082000BFF4F5AF5FEA027C24BFB1E81850A0E83E
:10083000185044BF18C918C0BDE810405FEA827C58
:1008400024BF51F8043B40F8043B08BF7047D2076F
:1008500028BF31F8023B48BF11F8012B28BF20F810
:10086000023B48BF00F8012B7047754600F02CF89A
:10087000AE4605006946534620F00700854618B08D
:1008800020B5FFF7BFFCBDE820404FF000064FF059
:1008900000074FF000084FF0000BAC46ACE8C00971
:1008A000ACE8C009ACE8C009ACE8C00921F0070118
:1008B0008D46704710B50446AFF300802046BDE872
:1008C0001040FFF78ABC0000004870470800002075
:1008D00001491820ABBEFEE7260002007047000069
:1008E0007F2222EA010101607047000010B50C462A
:1008F00050B12046012101F023FA00242046BDE832
:10090000104001F013BA00BF4FF48070002101F0D5
:1009100017FA2046BDE8104001F008BA10B51229B8
:1009200008D1D0F85CC02CF0070C4CEA030CC0F8DE
:100930005CC001E00A2915D301EB410ED0F80CC0D0
:10094000AEF11E0E072404FA0EF42CEA040403FA96
:100950000EF32343C360062A13D834306FF0040328
:1009600017E000BFD0F810C001EB410E072404FAD5
:100970000EF42CEA040403FA0EF323430361062A5F
:10098000EBD90C2A87BF2C306FF0400330306FF06A
:10099000220302EB82021A4403681F249440A343FB
:1009A00091401943016010BD40F60001C4F20201FC
:1009B000884218BF704780B54FF48050012101F084
:1009C000E5F94FF480500021BDE8804001F0DEB928
:1009D0008268002922F0010218BF0132826070474C
:1009E0008268002922F4A00218BF02F5A0028260EA
:1009F0007047000040F60801C4F202010A680028AE
:100A000041F62400C4F2000008D042F400020A605B
:100A1000016841F481110160704700BF22F40002B7
:100A20000A60016821F48111016070478168426D9C
:100A30000020002A08BFC1F380007047C06C80B25C
:100A4000704700000068084018BF01207047000090
:100A5000806D084018BF01207047000080B54268D3
:100A60004FF6FF63CFF6F0731A400B7891F801C090
:100A700042EA0322426082684FF2FD73CFF6F173BF
:100A800002EA030ED1E9012343EA0E031A4342EAC4
:100A90004C028260C26A097B22F470020139C9B239
:100AA00042EA0151C16280BD00210180C0E901110B
:100AB0000121017370470000416D002918BF704784
:100AC000816841F0040181607047000010B543F275
:100AD0000002C4F2020241B14B1E032B01F0030CD1
:100AE00006D20021BCF1000F1AD1106810BD00BF62
:100AF00021F00301A0F11003C1F1000E002100BF9D
:100B000053F8104F043914605C688E4514609C687B
:100B10001460DC681460F3D14942BCF1000FE4D0EA
:100B200050F82130BCF1010F1360DED000EB8100E2
:100B30004168BCF1020F11601CBF80681060106832
:100B400010BD000043F20800C4F202000121016060
:100B500070470000002942F20401CEF204010A6845
:100B60000CBF22EA000010430860704701684FF68E
:100B7000FE7211405722C4F202020160002190422D
:100B8000016041608160C16012DC2F21C4F202016A
:100B900088421FDC0821C4F20201884236D01C21A1
:100BA000C4F20201884218BF7047F0203AE000BF4B
:100BB0007F21C4F2020188421ADC5821C4F20201EA
:100BC000884225D06C21C4F20201884230D14FF412
:100BD000700027E03021C4F2020188421CD0442179
:100BE000C4F20201884223D14FF470401AE000BFE2
:100BF0008021C4F20201884212D09421C4F2020181
:100C0000884215D14FF070400CE000BF0F2009E082
:100C10004FF4702006E000BF4FF4706002E000BFA8
:100C20004FF070600421C4F202010A6810430860AA
:100C30007047000002684FF6FE7C42F00103002975
:100C400008BF02EA0C030360704700002DE9F0477B
:100C5000026847F6F073D1E9026A9A4301F110077E
:100C6000B0CF01F11C0E3243D1E900899EE80A5051
:100C70001A4322432A433A43114341EA0C0141EA11
:100C80000E010160C0F804A0C0F80880C0F80C9004
:100C9000BDE8F087002B08BF1846106170470000C0
:100CA00080B52C21FFF785FD80BD000081B041F2A9
:100CB00000010020C4F2020100900A68920733D4B8
:100CC000086840F0010008600868009A800702F197
:100CD0000102009224D40098B0F5A06F20D00868DB
:100CE000009A800702F10102009219D40098B0F531
:100CF000A06F15D00868009A800702F101020092E7
:100D00000ED40098B0F5A06F0AD00868009A80074A
:100D100002F10102009203D40098B0F5A06FD3D184
:100D20000868012121EA500001B0704770B542F215
:100D30000C0EC4F2020EDEF81050002D36D4DEF890
:100D400010500026AD0740F22315C4F267554EF847
:100D5000045C48F6AB15CCF6EF554EF8045CDEF8B3
:100D60000050CFF6FF7645F07C05CEF80050DEF857
:100D7000005058BFA536ED071AD1DEF800506D07B8
:100D800044BF032070BDDEF800502D0744BF04208F
:100D900070BDDEF80050ED0644BF052070BDDEF8E2
:100DA00000506D0644BF072070BDB8E0082070BD3C
:100DB0004FF430254FF00A0CDEF80040E40700F055
:100DC0008080DEF80040E40752D0DEF80040E407FF
:100DD00050D0DEF80040E4074ED0DEF80040E407D3
:100DE0004CD0DEF80040E4074AD0DEF80040E407CB
:100DF00048D0DEF80040E40746D0DEF80040E407C3
:100E000044D0DEF80040E40742D0DEF80040E407BA
:100E100040D0DEF80040E4073ED0DEF80040E407B2
:100E20003CD0DEF80040E4073AD0DEF80040E407AA
:100E300038D0DEF80040E40736D0DEF80040E407A2
:100E400034D0DEF80040E40732D0DEF80040E4079A
:100E500030D0DEF80040E4072ED0DEF80040E40792
:100E60002CD0DEF80040E4072AD0163DA4D1CCE215
:100E7000013D26E0023D24E0033D22E0043D20E068
:100E8000053D1EE0063D1CE0073D1AE0083D18E068
:100E9000093D16E00A3D14E00B3D12E00C3D10E068
:100EA0000D3D0EE00E3D0CE00F3D0AE0103D08E068
:100EB000113D06E0123D04E0133D02E0143D00E068
:100EC000153DDEF80040640714D4DEF80040240726
:100ED00016D4DEF80040E40618D4DEF800404FF0E7
:100EE000070C640658BF4FF0060C012D00F0C481BA
:100EF00011E000BF4FF0030C012D00F0BD810AE0AE
:100F00004FF0040C012D00F0B78104E04FF0050C08
:100F1000012D00F0B181BCF1060F40F07682DEF8C1
:100F2000045045F02005CEF80450DEF8045045F09A
:100F30004005CEF80450DEF80050ED0716D1DEF87B
:100F400000506D0772D4DEF800502D0774D4DEF81F
:100F50000050ED0676D4DEF800506D0640F1CE80EC
:100F60004FF0070C43F6DF704AE200BF4FF4302524
:100F70004FF00A0CDEF80040E40700F09280DEF843
:100F80000040E40764D0DEF80040E40762D0DEF8F9
:100F90000040E40760D0DEF80040E4075ED0DEF8F1
:100FA0000040E4075CD0DEF80040E4075AD0DEF8E9
:100FB0000040E40758D0DEF80040E40756D0DEF8E1
:100FC0000040E40754D0DEF80040E40752D0DEF8D9
:100FD0000040E40750D0DEF80040E4074ED0DEF8D1
:100FE0000040E4074CD0DEF80040E4074AD0DEF8C9
:100FF0000040E40748D0DEF80040E40746D0DEF8C1
:101000000040E40744D0DEF80040E40742D0DEF8B8
:101010000040E40740D0DEF80040E4073ED0DEF8B0
:101020000040E4073CD0163DA4D1EEE14FF0030CA4
:1010300043F6DF70E4E100BF4FF0040C43F6DF70CD
:10104000DEE100BF4FF0050C43F6DF70D8E100BFD2
:10105000013D26E0023D24E0033D22E0043D20E086
:10106000053D1EE0063D1CE0073D1AE0083D18E086
:10107000093D16E00A3D14E00B3D12E00C3D10E086
:101080000D3D0EE00E3D0CE00F3D0AE0103D08E086
:10109000113D06E0123D04E0133D02E0143D00E086
:1010A000153DDEF80040640714D4DEF80040240744
:1010B00016D4DEF80040E40618D4DEF800404FF005
:1010C000070C640658BF4FF0060C012D00F0D480C9
:1010D00011E000BF4FF0030C012D00F0CD800AE0BD
:1010E0004FF0040C012D00F0C78004E04FF0050C18
:1010F000012D00F0C180BCF1060F33D1DEF80050A5
:1011000043F6DF7445F07C05CEF80050DEF804505D
:101110002540CEF80450DEF804404FF60005C1F635
:10112000FF7544F01004CEF804402E60DEF8006035
:10113000F6071BD1DEF80060760700F1CB80DEF801
:101140000060360700F1CA80DEF80060F60600F1A4
:101150001181DEF80060760640F194804FF0070CB4
:101160004CE100BF43F6DF704AE100BF4FF400548A
:101170004FF00A0CDEF80060F6075CD0DEF8006085
:10118000F6073BD0DEF80060F60739D0DEF80060E5
:10119000F60737D0DEF80060F60735D0DEF80060DD
:1011A000F60733D0DEF80060F60731D0DEF80060D5
:1011B000F6072FD0DEF80060F6072DD0DEF80060CD
:1011C000F6072BD0DEF80060F60729D0DEF80060C5
:1011D000F60727D0DEF80060F60725D0DEF80060BD
:1011E000F60723D0DEF80060F60721D0DEF80060B5
:1011F000F6071FD0103CBDD107E100BF013C1AE04B
:10120000023C18E0033C16E0043C14E0053C12E00C
:10121000063C10E0073C0EE0083C0CE0093C0AE00C
:101220000A3C08E00B3C06E00C3C04E00D3C02E00C
:101230000E3C00E00F3CDEF80060760710D4DEF8CC
:101240000060360710D4DEF80060F60610D4DEF831
:1012500000604FF0070C760658BF4FF0060C09E00F
:101260004FF0030C06E000BF4FF0040C02E000BF9B
:101270004FF0050C012C01D10A2070BDBCF1060F06
:1012800040F0BC800843DEF80060104318436FF460
:101290007F0146F07C0641EA0040CEF800602861FC
:1012A000DEF80000C0071DD1DEF80000400711D4B1
:1012B000DEF80000000711D4DEF80000C00659D4A3
:1012C000DEF800004FF0070C400658BF4FF0060C48
:1012D00094E000BF4FF0030C90E000BF4FF0040C0F
:1012E0008CE000BF4FF400504FF00A0CDEF8001005
:1012F000C90760D0DEF80010C9073FD0DEF8001043
:10130000C9073DD0DEF80010C9073BD0DEF8001059
:10131000C90739D0DEF80010C90737D0DEF8001051
:10132000C90735D0DEF80010C90733D0DEF8001049
:10133000C90731D0DEF80010C9072FD0DEF8001041
:10134000C9072DD0DEF80010C9072BD0DEF8001039
:10135000C90729D0DEF80010C90727D0DEF8001031
:10136000C90725D0DEF80010C90723D01038BDD139
:101370004BE000BF4FF0050C40E000BF01381AE021
:10138000023818E0033816E0043814E0053812E09B
:10139000063810E007380EE008380CE009380AE09B
:1013A0000A3808E00B3806E00C3804E00D3802E09B
:1013B0000E3800E00F38DEF80010490710D4DEF8D0
:1013C0000010090710D4DEF80010C90610D4DEF8AA
:1013D00000104FF0070C490658BF4FF0060C09E00B
:1013E0004FF0030C06E000BF4FF0040C02E000BF1A
:1013F0004FF0050C012804BF0A2070BD43F6EF70C2
:10140000DEF804100840CEF80400604670BD00000D
:1014100042F20C02C4F20202116841F07C01116038
:101420001168C90714D11168490744BF03207047E8
:101430001168090744BF042070471168C90644BFFA
:10144000052070471168490644BF072070478FE0A8
:101450004FF430231168C90700F06D801168C90787
:1014600040D01168C9073FD01168C9073ED0116844
:10147000C9073DD01168C9073CD01168C9073BD0E6
:101480001168C9073AD01168C90739D01168C9076E
:1014900038D01168C90737D01168C90736D011682C
:1014A000C90735D01168C90734D01168C90733D0CE
:1014B0001168C90732D01168C90731D01168C9074E
:1014C00030D01168C9072FD01168C9072ED0116814
:1014D000C9072DD01168C9072CD0163B4FF00A015F
:1014E000B8D1F8E0013B26E0023B24E0033B22E0D8
:1014F000043B20E0053B1EE0063B1CE0073B1AE0F6
:10150000083B18E0093B16E00A3B14E00B3B12E0F5
:101510000C3B10E00D3B0EE00E3B0CE00F3B0AE0F5
:10152000103B08E0113B06E0123B04E0133B02E0F5
:10153000143B00E0153B116849070DD411680907F9
:101540000CD41168C9060BD4116849064FF0070185
:1015500058BF062105E000BF032102E0042100E09E
:101560000521012B04BF0A207047062940F0B380F3
:10157000516841F0020151609060506840F04000B5
:1015800050601068C0070FD11068400756D410682B
:10159000000755D41068C00654D4106807214006CF
:1015A00058BF062192E000BF4FF430201168C907F0
:1015B00000F073801168C90746D01168C90745D08B
:1015C0001168C90744D01168C90743D01168C90719
:1015D00042D01168C90741D01168C90740D01168CD
:1015E000C9073FD01168C9073ED01168C9073DD06F
:1015F0001168C9073CD01168C9073BD01168C907F9
:101600003AD01168C90739D01168C90738D01168B4
:10161000C90737D01168C90736D01168C90735D056
:101620001168C90734D01168C90733D01168C907D8
:1016300032D01638BAD10A2148E000BF032145E074
:10164000042143E0052141E0013826E0023824E08E
:10165000033822E0043820E005381EE006381CE09C
:1016600007381AE0083818E0093816E00A3814E09C
:101670000B3812E00C3810E00D380EE00E380CE09C
:101680000F380AE0103808E0113806E0123804E09C
:10169000133802E0143800E01538116849070DD4FA
:1016A000116809070CD41168C9060BD411684906E2
:1016B0004FF0070158BF062105E000BF032102E0FB
:1016C000042100E00521012808BF0A21506843F6E3
:1016D000FD731840506008467047000042F2100049
:1016E000C4F20200016841F080010160704700000F
:1016F00082071CBF0920704742F20C0CC4F2020C96
:10170000DCF8002042F07C02CCF80020DCF800205D
:10171000D20719D1DCF80020520744BF03207047DC
:10172000DCF80020120744BF04207047DCF80020DA
:10173000D20644BF05207047DCF80020520644BFA3
:1017400007207047BFE000BF4FF40053DCF80020D3
:10175000D20700F09280DCF80020D2073ED0DCF8FF
:101760000020D20740D0DCF80020D20742D0DCF8BD
:101770000020D20744D0DCF80020D20746D0DCF8A5
:101780000020D20748D0DCF80020D2074AD0DCF88D
:101790000020D2074CD0DCF80020D2074ED0DCF875
:1017A0000020D20750D0DCF80020D20752D0DCF85D
:1017B0000020D20754D0DCF80020D20756D0DCF845
:1017C0000020D20758D0DCF80020D2076ED0103BA2
:1017D0004FF00A02BAD11046704700BF013BDCF857
:1017E000002052074DD566E0023BDCF8002052078E
:1017F00047D560E0033BDCF80020520741D55AE0B2
:10180000043BDCF8002052073BD554E0053BDCF8F4
:101810000020520735D54EE0063BDCF80020520789
:101820002FD548E0073BDCF80020520729D542E0DD
:10183000083BDCF80020520723D53CE0093BDCF8EC
:10184000002052071DD536E00A3BDCF80020520785
:1018500017D530E00B3BDCF80020520711D52AE009
:101860000C3BDCF8002052070BD524E00D3BDCF8E4
:101870000020520705D51EE00E3BDCF80020520781
:1018800019D4DCF8002012070CD4DCF80020D206B2
:101890000AD4DCF8002052064FF0070258BF062297
:1018A0000AE000BF042207E0052205E00F3BDCF858
:1018B00000205207E5D50322012B04BF0A20704700
:1018C000062A7FF488AFDCF8042042F00102CCF84D
:1018D00004200160DCF80000C00713D1DCF8000030
:1018E000400755D4DCF80000000753D4DCF80000B2
:1018F000C00651D4DCF800000722400658BF06227B
:1019000084E000BF4FF40050DCF80010C90762D03B
:10191000DCF80010C90741D0DCF80010C9073FD03F
:10192000DCF80010C9073DD0DCF80010C9073BD037
:10193000DCF80010C90739D0DCF80010C90737D02F
:10194000DCF80010C90735D0DCF80010C90733D027
:10195000DCF80010C90731D0DCF80010C9072FD01F
:10196000DCF80010C9072DD0DCF80010C9072BD017
:10197000DCF80010C90729D0DCF80010C90727D00F
:10198000DCF80010C90725D01038BDD10A223DE08F
:1019900003223BE0042239E0052237E001381AE057
:1019A000023818E0033816E0043814E0053812E075
:1019B000063810E007380EE008380CE009380AE075
:1019C0000A3808E00B3806E00C3804E00D3802E075
:1019D0000E3800E00F38DCF8001049070ED4DCF8B0
:1019E000001009070CD4DCF80010C9060AD4DCF892
:1019F00000100722490658BF062204E0032202E035
:101A0000042200E00522012808BF0A22DCF80400B5
:101A100043F6FE710840CCF8040010467047000001
:101A200042F2040040F22311C4F20200C4F26751F2
:101A3000016048F6AB11CCF6EF5101607047000031
:101A40002DE9F04F83B0B1F800A0BAF1000F00F01B
:101A5000B98000F11802009200F128024FF0010B4A
:101A60004FF0000800270126019209E03AFA06F239
:101A700006F1010607F1020708F1040800F0A28050
:101A8000721E0BFA02FE1EEA0A0FEFD0D1F808C050
:101A90000292BCF1120F1FD80D230BFA0CF2C0F208
:101AA00004031A4218D008F01C020F2303FA02F9AB
:101AB000029B55461B074FF0240358BF202350F8C4
:101AC00003B0D1F80CA02BEA09040AFA02F24FF095
:101AD000010BAA462243C250036803220CF00F04F4
:101AE000BA409343BC4023430360C4680B799443DA
:101AF00003F00305BD402C43BCF1030FC46018BFC5
:101B00001CF0030409D0C46A8D78D24305F00305A4
:101B1000224005FA07F42243C2628268CC78029D13
:101B200004F0010422EA0E02AC4022438260019AD2
:101B3000022B02D0012B04D1009A136843EA0E0352
:101B40001360BCF1120F6FEA0E090DD80BFA0CF2FC
:101B500012F0061F1FBF426802EA09024FEA1C1377
:101B6000AB401CBF1A4342605FEACC027FF57EAFF8
:101B700040F20045C4F201052C685FEACC3344EA28
:101B80000E0258BF04EA09022A606C685FEA8C33CF
:101B900044EA0E0258BF04EA09026A60AC685FEAD0
:101BA000CC2344EA0E0258BF04EA0902AA60EC689A
:101BB0005FEA8C2344EA0E0258BF04EA0902EA6095
:101BC00054E700BF03B0BDE8F08F00004FF6FF718F
:101BD000016000210F22C0E902120171704700006C
:101BE0004FF2C071C1F6FF710A6802604A68426034
:101BF0008A688260C968C1607047000010B5C1780A
:101C000000294EF20011CEF200011BD04EF60C520C
:101C1000CEF200021268072323EA12220F23C2F138
:101C2000040C23FA02F24378847890F800E003FA77
:101C30000CF322401A43120101EB0E0383F8002338
:101C400001E000BF80310078012300F01F0203FA99
:101C500002F2C0F3421041F8202010BD2021C4F24E
:101C60000E2108607047000047F21401C4F2000121
:101C70000A6810430860704747F21402C4F2000279
:101C80001368012843F001031360136843F0020353
:101C90001360136843F00403136052F80C3C23F400
:101CA000405341EA030142F80C1C52F8141C4FF057
:101CB000030363F3020142F8141C4EF61051CEF2F6
:101CC00000010A6842F004020A600FBF30BF40BF43
:101CD00020BF20BF7047000047F20C02C4F2000290
:101CE0000432012804BF47F20C02C4F2000210685B
:101CF000084018BF0120704747F20802C4F20002F2
:101D00001368012912BF23EA000023F007010843EA
:101D10001060704741F22C02C4F2020213680843BB
:101D200023F47C33184310607047000041F22C010B
:101D3000C4F202010A6822F00F02104308607047E3
:101D400041F22C02C4F202021368002908BF20F4F9
:101D5000807023F4F87108431060704741F220014D
:101D6000C4F202010A6822F440720A600A68104351
:101D700008607047002941F21401C4F202010A68A8
:101D80000CBF22EA0000104308607047002941F2AE
:101D90002801C4F202010A680CBF22EA00001043C5
:101DA00008607047002941F21C01C4F202010A6870
:101DB0000CBF22EA0000104308607047002941F27E
:101DC0001801C4F202010A680CBF22EA00001043A5
:101DD0000860704740F24041C4F2422108607047F9
:101DE00040F28041C4F242210860704740F23C4119
:101DF000C4F242210860704710B541F2040EC4F2EB
:101E0000020EDEF8002040F20F2101EA9241120199
:101E1000DEF800306FF4F772DEF820C058BF0222FF
:101E2000DB030A4404D4DEF83C1001F0010303E0B4
:101E3000DEF8001001F4003341F20021C0F27A0113
:101E4000002B04BF42F20041C0F2F401DEF83C3046
:101E5000DEF800405143C4F38102541EC3F3400333
:101E6000022C21FA03F305D242F20042C0F2F4023E
:101E70000BE000BF032A1A4607D046F64021CCF3F8
:101E80000212C0F6000151F822200260DEF80010B4
:101E900046F6FF14C1F30311C0F60004615C22FA98
:101EA00001F14160DEF80020C2F30222A25C21FAB7
:101EB00002F28260DEF80020C2F3C222A25C46F683
:101EC0000F2421FA02F2C260DEF82820C0F60004D6
:101ED00002F00F02A25CB1FBF2F146F62022416152
:101EE000DEF82810C0F60002C1F3031132F8111019
:101EF000B3FBF1F1016110BD420941F20001012A79
:101F0000C4F2020103D0022A14BF2431203109682F
:101F100000F01F0021FA00F000F0010070470000FF
:101F200042F60C02C4F2000213684FF67F7101EA18
:101F3000101003F0800108446FF0800148401060E9
:101F40007047000042F60802C4F20002CA23D361BF
:101F50005323D36120F00400002911680CBF21EA4B
:101F6000000008431060FF20D061704742F608016E
:101F7000C4F20001CA22CA615322CA610A6822F06F
:101F800007020A600A6810430860FF20C8617047B2
:101F900081B042F60C010022C4F200010092CA2274
:101FA0008A6153228A6151F8042C48B142F480605E
:101FB00041F8040C0120FF228A6101B0704700BF84
:101FC00022F4806041F8040C0868009A0132009203
:101FD000009AB2F5005F23D010F0040020D1086809
:101FE000009A01320092009AB2F5005F18D010F00A
:101FF000040015D10868009A01320092009AB2F5E7
:10200000005F0DD010F004000AD10868009A013278
:102010000092009AB2F5005F02D010F00400D3D015
:102020000868C0F38000FF228A6101B07047000099
:1020300042F60C01B0F5003FC4F2000118BFB0F544
:10204000802F0DD14A6B096812F47F0F05D001EA89
:10205000101000041CBF012070470020704700BF13
:10206000B0F5002FEED051F8042C09680242EED1F1
:10207000F3E7000042F62401C4F20001CA220A601C
:1020800053220A6041F8100CFF20086070470000DE
:1020900081B042F60C010020C4F200010090CA2079
:1020A000886153208861086820F02000086000BF24
:1020B0000868009A01320092009AB2F5004F23D0CE
:1020C00010F0200020D10868009A01320092009A96
:1020D000B2F5004F18D010F0200015D10868009A12
:1020E00001320092009AB2F5004F0DD010F020009E
:1020F0000AD10868009A01320092009AB2F5004FA6
:1021000002D010F02000D3D00868FF22C0F34010A6
:102110008A6101B07047000010B54EF6885CCEF2BF
:10212000000CDCF8000041F2040140F47000C4F23D
:102130000201CCF80000086A4CF2000240F00400F2
:1021400008620868CFF6FF021040086051F8040CDE
:102150004FF6FF72CFF6F662104041F8040C51F8CA
:10216000040C4FF6FF7220F4802041F8040C08683C
:10217000C0F20072104008604FF4E04088624FF4F3
:102180006050C86200200863C86348F20000C0F2D3
:10219000BF404860886947F2100240F08050C4F2A6
:1021A0000002886152F8100C400541F62000C4F28C
:1021B000000007D5036823F000730360036843F051
:1021C0000073036042F2000EC4F2020EDEF800302B
:1021D00043F09003CEF80030DEF80030DB0505D583
:1021E000DEF8003023F40073CEF8003051F8043CE0
:1021F00043F4803341F8043C41F6FC7351F8044C3D
:10220000A4035CBF51F8044C5FEA84340CD451F849
:10221000044CA4035CBF51F8044C5FEA843403D43B
:10222000002BA3F10403E9D151F8043C9B0309D42A
:1022300040F2000040F60011C2F20000C0F23D0181
:1022400001608BE0036823F000730360036843F0D0
:102250000073036052F8100C20F4C06042F8100CB8
:1022600052F8100C40F4806042F8100C106880079F
:102270000AD51068800744BF10685FEA807003D5F4
:1022800010688007F2D400BF1068800709D4106876
:1022900080075CBF10685FEA807002D41068800716
:1022A000F2D5DEF800004FF6FF7220F00300CEF802
:1022B0000000DEF80000CFF2C07240F00100CEF85E
:1022C000000008680860086840F40050086008686A
:1022D00040F4A0600860086810400860C86B20F0F7
:1022E0000300C8630868CA6B40F45C1042F0020245
:1022F0000860CA6351F8040C40F0807041F8040C87
:1023000051F8040C80010CD451F8040C80015CBF1E
:1023100051F8040C5FEA801003D451F8040C8001DA
:10232000EED5086820F003000860086840F003005C
:10233000086000BF086800F00C000C280ED0086888
:1023400000F00C000C2809D0086800F00C000C28E4
:1023500004D0086800F00C000C28EBD14FF00060AE
:102360004CF8800C10BD0000B0B54FF0804001214A
:1023700000F044F840F26804C2F20004D4E901100D
:10238000227B411A91420FDA411CA16040787428E7
:1023900040F20040C4F200000CBF01210021BDE862
:1023A000B04000F037B800BF4FF08040002100255A
:1023B00000F030F840F20040C4F20000002100F0CC
:1023C00029F82570B0BD000080B541F20000C4F2CC
:1023D0000000012100F012F840F26800C2F2000093
:1023E0000078002818BF80BD40F2D410C2F200006F
:1023F00040688047BDE8804001F0DCB9C943016115
:1024000070470000002A82890CBF22EA01011143B3
:10241000818170470268002922F0010218BF013251
:1024200002607047002A82890CBF22EA0101114331
:1024300081817047F0B50A88082A2DD0042A55D02A
:10244000002A7DD14B88B1F804C0B1F808E0026AD7
:1024500040F6FF3622F001020262024632F8184FBF
:10246000056AC4F20006B0426FF0030640F39280A2
:1024700042F6FF37C4F20107B84200F3C98040F6C4
:102480000047C4F20007B84200F0D08043F600478E
:10249000C4F20007C6E000BF4C88B1F804C0B1F830
:1024A00008E0026A40F6FF3622F4807202620246B9
:1024B00032F81C3F056AC4F20006B04278DD42F6ED
:1024C000FF36C4F20106B04200F3C08040F6004679
:1024D000C4F20006B04200F0C58043F60046C4F2E4
:1024E0000006B04200F0BE801AE100BF4C88B1F88F
:1024F00004C0B1F808E0026A40F6FF3622F010028C
:102500000262024632F8183F056AC4F20006B04281
:102510005EDD42F6FF36C4F20106B04200F3B4803D
:1025200040F60046C4F20006B04200F0B98043F61F
:102530000046C4F20006B04200F0B280F4E000BFF2
:102540004C88B1F804C0B1F808E0026A40F6FF36E2
:1025500022F480520262024632F81C3F056AC4F23D
:102560000006B04244DD42F6FF36C4F20106B04236
:1025700000F3B08040F60046C4F20006B04200F01E
:10258000B58043F60046C4F20006B04200F0AE80CB
:10259000CEE000BFB0F1804F48D040F20047C4F217
:1025A0000007B84242D040F60007C4F2000739E005
:1025B000B0F1804F56D040F20046C4F20006B0425F
:1025C00050D040F60006C4F20006B0424AD0A7E060
:1025D000B0F1804F64D040F20046C4F20006B04231
:1025E0005ED040F60006C4F20006B04258D09BE030
:1025F000B0F1804F7AD040F20046C4F20006B042FB
:1026000074D040F60006C4F20006B0426ED08FE0EF
:1026100042F60047C4F20107B84207D043F2004730
:10262000C4F20107B84218BF6FF00B0635402B43C8
:1026300024F0F3044CEA0E1743F001032743078309
:102640000362C988038B23F00C033DE043F200468C
:10265000C4F20106B04205D042F60046C4F20106BB
:10266000B0425DD1260225F44074344323F0F303D5
:102670004CEA0E1744F480743B4383830462C98898
:10268000838B23F00C0346E043F20046C4F20106BC
:10269000B04205D042F60046C4F20106B04243D132
:1026A000260125F0300440F6FF452B40344343EA31
:1026B0000E3344F0100443EA0C2303830462C988F8
:1026C000038B090223F440630383108808431080BE
:1026D000F0BD00BF43F20046C4F20106B04205D08F
:1026E00042F60046C4F20106B04221D1260325F489
:1026F000405440F6FF454FEA0E3734432B4047EA3B
:102700000C2744F480543B4383830462C988838B41
:10271000090223F440638383108808431080F0BDCE
:1027200025F43066A1E700BF25F0B006BBE700BF87
:1027300025F44056DDE700000021012201604260DF
:1027400001817047B0B5026A43F2004422F00102F1
:102750000262026A4568B0F818C00B8922F00202D2
:102760001A434B88C4F20104B1F800E0A04242EAE7
:10277000030205D042F60043C4F2010398420DD192
:102780004B8922F00C0223F004038C881A43224365
:102790008C8925F44073CD8923431D432CF07303AA
:1027A00043EA0E0345600383C98881860262B0BD97
:1027B0000021C16081604160016070474FF6FF7188
:1027C000818000210160C0F80610C0F80A108173F2
:1027D00070470000F0B540F6FF350268C4F200050E
:1027E00043F2004342F6FF3443F6004E40F6000C3D
:1027F000A842C4F20103C4F20104C4F2000EC4F200
:10280000000C0BDDA04215DC40F60046C4F20006C9
:10281000B04217D0704515D018E000BFB0F1804F1E
:1028200010D040F20046C4F20006B0420AD0604523
:1028300008D00BE0984205D042F60046C4F20106EB
:10284000B04203D14E8822F07002324341F2004779
:1028500040F48066C4F20007BE4203D0CE8822F462
:102860004072324302608A88984282850A880285D3
:1028700005D042F60042C4F20102904201D10A7A28
:102880000286012282820268A8420BDDA04215DC8A
:1028900040F60044C4F20004A04217D0704515D0A1
:1028A0001BE000BFB0F1804F10D040F20044C4F2F2
:1028B0000004A0420AD0604508D00EE0984205D03E
:1028C00042F60044C4F20104A04206D14C7A002C26
:1028D0000CBF22F4006242F40062704512D043F64D
:1028E000FF34C4F20004A04225DCB0F1804F2CD0AC
:1028F00040F20043C4F20003984226D0604524D041
:102900002AE000BF8C7A22F44052CD7A0E7B002C54
:1029100018BF02F58052002D18BF02F50052002E9C
:102920000CBF22F4804242F4804243F6FF34C4F2EA
:102930000004A042D9DD704507D0984205D042F688
:102940000043C4F20103984206D14B7B002B0CBF1D
:1029500022F4004242F400420260426840F4006304
:10296000634507D1897B19B142F480724260F0BDA2
:1029700022F480724260F0BD028922F0700211439D
:1029800001817047028922F080020281028911438D
:1029900001817047426822F0700242604268114330
:1029A00041607047028922F00702028102891143C7
:1029B000018170478289002918BF012122F4005249
:1029C00042EA413181817047002A828A0CBF22EAA3
:1029D000010111438182704770B586B00446008AB8
:1029E0000D46C98820F4405008432082A0894EF645
:1029F000F3110840A9882A896B89084310431843BA
:102A0000A081A08AA98920F4407008436E46A08264
:102A10003046FFF7F1F943F60000C4F201008442AA
:102A20000BD045F20040C4F20100844205D045F2CB
:102A30000000C4F20100844202D106F10C0001E062
:102A400006F1080000682A68192148439100B0FB8C
:102A5000F1F048F21F51C5F2EB11A0FB01235A0916
:102A60004FF69C73C0F6FF7302FB0300322303EBA7
:102A70000010A0FB0101C1F3431040EA02102081C5
:102A800006B070BD40F2A810C2F2000080690321B8
:102A900001707047B0B541F61025C2F20005D5F8B7
:102AA00014210C461144782988BFB0BD0146D5F8E1
:102AB000B0012246FDF730FED5F8B0012044C5F83C
:102AC000B001B0BDB0B50C460546FEF73BF8284650
:102AD0002146FDF7FBFF0446FEF734F82046B0BD63
:102AE00060B1022812D0012818BF704740F6184084
:102AF000C4F2010002210160704700BF40F6184097
:102B0000C4F2010002210161704700BF40F61400C9
:102B1000C4F20100016881F00201C0F8001470479E
:102B200060B1022812D0012818BF704740F6144047
:102B3000C4F2010001214160704700BF40F614401B
:102B4000C4F2010001214161704700BF40F614400A
:102B5000C4F20100016881F00101016070470000CA
:102B6000F0B581B0044640F29010C2F20000007946
:102B700040F27806A025C2F2000678B9F06B8047D3
:102B80004AF6AB21CAF6AA21A0FB0112510801EBBB
:102B90004101401AC0EBC00005EB8015F06B804787
:102BA000F16B071B8847AF4208D8001B854205D947
:102BB00000BFF06B8047001B8542F9D801B0F0BD23
:102BC00040F2E410C2F2000070470000B0B584B0DB
:102BD00040F26800C2F20000017831B1017821B101
:102BE000017811B101780029F6D10020FFF7F2F841
:102BF0000120FFF733F80020FFF7F8F80120FFF776
:102C0000EFF800BF6120FFF777F90028FAD04FF402
:102C10000070FFF7A3F80120FFF7E8F8FFF738FA94
:102C200000200025FFF7B4F90020FFF79FF941F2DB
:102C30008830FFF71FFA0320C0F2001000906846AA
:102C4000FEF7DCFF47F20800C4F20000016841F41F
:102C5000804101604FF480400121FFF773F96C4619
:102C60002046FEF7B3FF4FF6FF70029540F60005D1
:102C7000ADF800000220C4F201058DF804002846DA
:102C80002146FEF7DDFE05F580602146FEF7D8FE01
:102C900005F500602146FEF7D3FE05F540602146AC
:102CA000FEF7CEFE01200021FFF726F802200021CA
:102CB000FFF722F804200021FFF71EF8042001216D
:102CC000FDF748FF4FF48040FFF7B2F918B14FF419
:102CD0008040FFF725F901204FF48071FEF7FCFFDB
:102CE00018B14FF48070FEF7BFFF0120FFF750F9D5
:102CF00001204FF40051FEF7BFFF04B0B0BD00004B
:102D000040F2A810C2F20000816904220A7000217A
:102D1000C0F8011070470000F0B583B040F2D40550
:102D2000C2F200050020696940F278060190286827
:102D3000C2F20006EA6809BA746A6F46009100F1AF
:102D4000520138460023A0472868766A2A6900F1B4
:102D50005B0138460023B04703B0F0BD2DE9F04FCA
:102D600081B08046A2F16F00CE0801221C464B07BD
:102D700018BF02EBD106D8F80410D8F8002040F2B2
:102D8000D40A61602260C2F2000A40F27809DAF8DF
:102D90000010C2F2000900EBC00BD9F8247001EB5F
:102DA0000B00411C204622460023B847022E38D390
:102DB000764208F10F0700BF17F8070C21786278F8
:102DC0004840207017F8060CA1785040607017F842
:102DD000050CE2784840A07017F8040C21795040A7
:102DE000E07017F8030C22464840207117F8020CD7
:102DF000617900234840607117F8010CA1794840BF
:102E0000A07117F8080BE1794840E071DAF800008A
:102E1000D9F824505844411C2046A8470136701C5C
:102E2000CAD101B0BDE8F08F80B540F27800C2F29F
:102E30000000C06B804780EA404080EA503040F29A
:102E4000D40180EAC010C2F20001486180BD0000D8
:102E500010B584B004466846FEF7C2FE9DE80F0038
:102E6000084410441844206004B010BD40F6240209
:102E7000C4F20002B2F800341188B2F800048342B0
:102E800018BF118841EA004070470000F0B589B0D2
:102E9000054640F6000400200521C4F20204002784
:102EA000FDF724FD4FF400304FF47041FEF732FF80
:102EB00005AE3046FEF78AFE0420ADF8140003206C
:102EC0000790A4F580303146FEF7BAFD01AE3046DA
:102ED000FDF7EAFD2046FDF767FD4FF46020CDE9E0
:102EE000020701208DF8100020463146ADF804702D
:102EF000FDF7B4FD20460121FDF76AFD20462021A3
:102F0000FDF7A6FD0028F9D02046FDF7D5FD00BF4E
:102F10002046FDF78BFD0028FAD10120FDF76AFD60
:102F20002046002101220523FDF7F8FC204601215F
:102F3000FDF756FD20460221FDF784FD0028F9D05B
:102F400020460221FDF7CCFC20461021FDF7C8FCED
:102F50002046FDF773FD0646204603210122052386
:102F6000FDF7DCFC20460121FDF73AFD2046022159
:102F7000FDF768FD0028F9D0304603F014FC064642
:102F80000F4620460221FDF7ABFC20461021FDF73D
:102F9000A7FC2046FDF752FD03F005FC47F6FF3382
:102FA000C4F2CA034FF0FF3203F010FC32463B4636
:102FB00003F070FA03F0C8FB288020460021FDF7DB
:102FC00007FD09B0F0BD0000FEF70ABE70B540F283
:102FD0002816C2F200060C46054630465C21FDF775
:102FE000E8FB43F6F91044F67D41C0F60000C0F658
:102FF0000001C6E9170105F2CC402146366500F014
:1030000029F8284600F09AF9BDE8704000F0F6B9BA
:1030100040F2901043F6E50242F66133C2F200003E
:103020000021C0F60002C0F60003C0E90011C0E9AB
:103030000223704740F2A01044F2B13144F295628D
:10304000C2F20000C0F60001C0F60002C0E90012A2
:103050007047000070B540F2A816C2F200060C4698
:10306000054630462C21FDF7A4FB0120307044F2C8
:103070005D00C6E90554C0F60000E968306244F21C
:103080008940C0F60000F06142F68520C0F60000DD
:10309000B06242F60150C0F60000C6F8011070623E
:1030A00070BD000070B584B06C462046FEF78EFD02
:1030B00040F6004502201021C4F20105ADF80000E1
:1030C0008DF802108DF8040001262846214602964C
:1030D000FEF7B6FC28462146ADF80060FEF7B0FCCE
:1030E00004B070BD2DE9F04188B042F63D000121E9
:1030F000FEF764FE1F20C1F200000121FEF752FE20
:1031000041F241000121FEF735FEFDF7CFFD08B188
:10311000FEE700BF04AD43F600042846C4F20104F4
:10312000FEF754FD4020ADF8100010208DF812007D
:1031300004204FF002080790A4F540502946CDF82E
:103140001880FEF77DFC4FF4FA5000904FF40020F9
:1031500000270290694620460197ADF80C70FFF7F2
:103160003BFC40F26806C2F2000643F60C003770E2
:10317000C4F20100018841F0400101802046012194
:10318000FFF718FC204680210122FFF71DFCFFF706
:1031900089FF00F087F9FEF743FC42F21800C4F201
:1031A0000200006800F4E060B0F5807F05D00120E7
:1031B000022104221023FDF7B9FDFEF78FFA4FF428
:1031C0008040FEF7ADFE0020FEF7E2FE4FF48040A7
:1031D0000021FEF7B7FE04AD2846FEF7F7FC4FF6D8
:1031E000FF70ADF81000A4F52050294606978DF821
:1031F0001480FEF725FCA4F510502946FEF720FCAC
:1032000045F26927C0F60007376545F20D67C0F63D
:103210000007776545F2F967C0F60007B76545F224
:103220001977C0F60007376645F27D2743F645005B
:1032300045F2696C42F66D63C0F6000743F2C16265
:10324000C0F6000043F69501C0F6000CC0F600037E
:10325000F76542F6E127C0F60002C0F60001C0F6AD
:103260000007C6E90C20C6E912C344F6491C45F222
:103270007150C6E90E17C0F6000C45F27D31C0F65C
:103280000000C0F6000142F6516242F6C97342F6F0
:10329000C527C6E9060C06F1200042F6213542F6A4
:1032A0008D64C0F60002C0F60003C0F600078EC0B1
:1032B00043F2B570C0F60005C0F60004C0F6000089
:1032C000C6E9105444F6DD1545F24574706642F6C1
:1032D000CD30C0F60005C0F60004C0F60000C6E917
:1032E0000454B06608B0BDE8F081000040F2D4108C
:1032F00042F6C131C2F20000C0F6000145F2F522EB
:1033000043F2396344F6994CC0F60002C0F600035C
:10331000C0F6000C80E80E107047000040F6E41084
:1033200044F6514146F21942C2F20000C0F60001D3
:10333000C0F60002C0E9001270470000F0B540F28C
:10334000D401C2F2000111228A6101220A770B2204
:10335000C1E9080200F58C624FF0000C0A6000F22F
:10336000C342C1E9012C42F6296200F52A73C0F676
:103370000002C1E90B3245F28D2245F2397381F822
:1033800028C042F6195C43F6C16E42F65D5445F220
:103390003D4545F2E13645F2AD47C0F60002C0F6C4
:1033A0000003C0F6000CC0F6000EC0F60004C0F624
:1033B0000005C0F60006C0F60007C1E9132300F2BD
:1033C000DC4200F2E440C1E90DCEC1E90F46C1E99B
:1033D0001157CA600861F0BD41F6F41044F25D2156
:1033E000C2F20000C0F6000144F2ED5244F6590367
:1033F000C0F60002C0F600030EC0704741F6002080
:1034000044F2E921C2F20000C0F6000144F2715218
:1034100043F6B57344F2CD2CC0F60002C0F60003AB
:10342000C0F6000C80E80E1070470000B0B541F601
:103430001024C2F2000420464FF41071FDF7B9F9D0
:1034400040F2D410C2F200008068804744F26970F4
:10345000C0F60000C4F83C0220464FF40D71FDF7A1
:10346000A8F904F11000A06004F5907040F278050E
:10347000C4F81C0104F5DA70C2F20005C4F8B0010A
:1034800042F69520A96BC0F60000C4F834028847C4
:10349000696C64208847A86C8047012084F8380252
:1034A000B0BD00002DE9F04F8FB004AD2846FEF707
:1034B0008DFB40F60004C4F201044FF0010900271F
:1034C0004FF0020820462946ADF8109006978DF877
:1034D0001480FEF7B5FA2846FEF778FB4FF48070AB
:1034E000ADF8100020462946CDE906788DF81490F5
:1034F000FEF7A6FA2846FEF769FB4FF0800B4FF067
:10350000100A20462946ADF810B08DF812A08DF8AB
:103510001480CDF81890FEF793FA04F580602946E0
:10352000ADF810B0FEF78CFA20462946ADF810A091
:10353000FEF786FA082620462946ADF81060FEF709
:103540007FFA0825C4F2020528460021A661C4F8C6
:1035500028A0FDF76FFB04AE3046FDF7A1FB28461F
:10356000FDF704FB42F6484AC4F2010A0AF10400DE
:10357000049040F6EC10C2F20000CDE905074FF4CC
:10358000006007A981E881084FF480700A904FF429
:103590008060CDE90B074FF48050CDE90D07284638
:1035A0003146FDF753FBA5F1080117202A460123F8
:1035B000FDF770FB04AD2846FFF700F90520ADF8D4
:1035C00010000020CFF6EE7004F51054CDF8120074
:1035D00020462946ADF81670FFF7FCF801AE3046DC
:1035E000FFF7AAF820463146CDE90179ADF80C7015
:1035F000FEF720FF0420C0F20200CDE901082046BA
:103600003146ADF80C70FEF715FF40F20D10AAF828
:1036100000002846FFF7D2F84FF49810CDF81200BA
:103620000AF5F7602946ADF81070ADF81670FFF78F
:10363000D1F80FB0BDE8F08F70B540F27805C2F256
:10364000000540F2E414EA68C2F2000420464FF498
:1036500000719047D4F8EC0449F26501C7F2736138
:10366000884209D1EA69D4F8FC6720464FF4FF711B
:103670009047864208BF70BDBDE8704001F00CBBAA
:10368000FFF730FDFFF732FEFFF7D0FEFFF7D2FC69
:10369000FFF7A2FE40F2D410C2F20000006880479B
:1036A00041F61024C2F2000404F50E71FFF78EFCFF
:1036B000FFF7AEFCFFF732FED4F83C028047FBE791
:1036C0002DE9F0418CB040F26807C2F200073A7869
:1036D00012B10CB0BDE8F081002404AD40F2004806
:1036E0003C70C7E901002846C4F200083973FFF7AF
:1036F00065F847F23050ADF810004FF4C800CDF82F
:1037000012004FF080402946ADF81640FFF762F8EE
:103710001C20C0F20010089008A8FEF76FFA08AE4F
:103720003046FEF753FA4020ADF820000220102169
:103730000A908DF822100B9008F582303146FEF782
:103740007FF92846FFF73AF80020C1F64B50CDF834
:10375000120040462946ADF81040ADF81640FFF77C
:1037600039F86D462846FFF723F86020C0F20100C3
:10377000009040F6A660CDF8060040462946FEF7C8
:10378000E1FF01203870B8680078742803D1404602
:103790000121FEF73FFE4FF080400121FEF73AFE87
:1037A0004FF0804001210122FEF72CFE0CB0BDE855
:1037B000F0810000B0B584B06C462046FEF706FAF2
:1037C0004FF6FF70ADF80000002040F600050290B3
:1037D0000220C4F201058DF8040028462146FEF7B8
:1037E0002FF905F580602146FEF72AF905F50060FE
:1037F0002146FEF725F905F540602146FEF720F940
:1038000002200121FEF778FA04200121FDF7A2F938
:1038100001204FF48071FEF75FFA18B14FF4807009
:10382000FEF722FA01200221FEF756FA10B102201B
:10383000FEF71AFA01204FF40051FEF71DFA04B00A
:10384000B0BD000080B588B000900020019002203B
:1038500004904FF0113006904FF0553007904FF024
:103860004430CDE90221002B08BF4FF033300590E2
:103870006846FCF7D9FC18B10720C0B208B080BD7B
:103880006846FCF74EFD002818BF0720C0B208B0FC
:1038900080BD000080B588B000900020019002201B
:1038A00004904FF0113006904FF0663007904FF0C3
:1038B0004430CDE90221002B08BF4FF03330059092
:1038C0006846FCF7B1FC18B10720C0B208B080BD53
:1038D0006846FCF726FD002818BF0720C0B208B0D4
:1038E00080BD000082681178FF2905D0116804238B
:1038F000C160C9B203E000BFFF21017301231A4474
:10390000826012F8013B9F2B80F8103182600FDC3F
:10391000202B51D0802B2DD1FF292BD00021052326
:1039200080F8AC1180F8123180F8A01116E000BFC9
:10393000A82B25D0A02B1DD1FF2921D10123602147
:1039400080F8123180F8A03140F2901380F8A51170
:103950000021C2F2000380F8AC11197112F8013B8A
:10396000032B80F81131826044D0772B22D0F72BC3
:1039700034D03BE0062180F812110820704700BFC8
:10398000042380F812310323D02180F8A03140F2C3
:10399000901380F8A5110121C2F2000380F8AC1148
:1039A000197112F8011BF72980F81111826015D0E6
:1039B00077291BD1F72112E0C02180F8A511012140
:1039C000022280F8AC1180F8122180F8A02140F288
:1039D0009010C2F200000171002070477721A0F81A
:1039E000A611012180F8AC1100207047062180F853
:1039F00012110921084670472DE9F04F83B0824625
:103A000090F8120102280BD0012813D140F2A8101F
:103A1000C2F20000016A504603B0BDE8F04F08470B
:103A200040F2A810C2F20000C169504603B0BDE8E0
:103A3000F04F084740F2A811C2F20001D1F801008E
:103A4000896ACAF8A1018847554655F8080F0AF156
:103A50001009DAF80010A0EB09028A4280F02082F7
:103A600040F22818C2F20008D8F85410042900F2D5
:103A700017820AF590710291D8F850106FF00F027A
:103A80000AF5D87BA2EB0A02009200BF0078087208
:103A9000D8F850202868137ADBF80010506003F043
:103AA000870081284FF00700116040F0028213F078
:103AB000700700F0FE81D8F85400002842D0012899
:103AC0000AD198F8080083424FF0010014BF88F82B
:103AD000590088F8580035E098F85970002F00F028
:103AE000EB8198F808709F4200F0E681A0F1010C8C
:103AF00008F12806C0F1000E00270EEB0700841C19
:103B000020D016F8104C9C4214D0C41C1AD0347823
:103B10009C4211D0041D15D0347C9C420ED005303F
:103B200010D096F820004036984207F10407E4D1FF
:103B300005E000BF013702E0023700E003376745C8
:103B4000C0F0BA81107A0870DAF80800DAF8B0111B
:103B5000421C0131CAF80820CAF8B011CAF8A811ED
:103B60004078D8F850104872D8F850200021537A85
:103B700007201F09062F31D80FF2080606EB87062B
:103B8000B74600BF00F00CB800F028B800F010B83D
:103B900000F024B800F014B800F020B800F018B815
:103BA00003F00700053818BF01204000102115E080
:103BB00013F0070018BF0120400000210EE000BFF5
:103BC00003F00700013818BF01204000502105E034
:103BD00003F00700022869D174210020DBF80020DF
:103BE00007281170DBF8001001F101022968CBF8F9
:103BF000002001F101032B6000F05E81D8F85070C5
:103C00004B780231296002284FF00201BB7208D0C4
:103C1000012B06D81370DBF8000000215A46013052
:103C2000106098F85A0098F858200028084618BFE5
:103C30000620002A08BF0846002868D1D8F850108E
:103C4000487A0F2804D8286810F8012BCA72286017
:103C500040F20410C2F2000082682846904728B162
:103C6000DAF8301280294AD950E000BFD8F8501055
:103C7000487A0009062845D80FF2080202EB8002B4
:103C8000974600BF00F00CB800F03CB800F014B844
:103C900000F038B800F022B800F034B800F024B8D2
:103CA00041F60020C2F20000826822E02868017814
:103CB000917202212A46B2E741F60020C2F20000CA
:103CC000C36840F2A810C2F20000426A504698470A
:103CD000DAF83012802912D918E000BF41F600202E
:103CE000C2F20000426804E041F60020C2F2000087
:103CF000026850469047DAF83012802906D830B969
:103D00004EE000BFDAF83002802849D90220D8F806
:103D1000501001230A6888F85A30CBF80020097A3D
:103D20001170DBF80010D8F850200131CBF80010EA
:103D3000537A1B0906D0042B06D0062B0AD1722217
:103D400003E000BF122200E054220A70DBF80010EA
:103D5000D8F85020927A4B1CCAF8B0314A70DAF881
:103D6000B0114A1CCAF8B0214870DAF800C0DAF87D
:103D70000820DAF8B011ACF10603A2EB09079F4264
:103D8000029F01F10101CAF8B011A1EB0701CAF8C5
:103D9000141119D909EB0C010728296000F08C8057
:103DA000D8E91410DAF80030421CDAF808001031B3
:103DB000A0EB09079F42C8F85010C8F8542038BF3C
:103DC000052AFFF463AE6BE0009900268F180CE023
:103DD0000C1D2C600C79022CDED000BF911901362D
:103DE000BC1901319C422960D4D8915D01F087044F
:103DF000812CF3D111F07001F0D091194C1C2C6082
:103E00004C7824090ED044F00204062CE6D18C1C18
:103E10002C608C78012CE1D8CC1C2C60CC78042C44
:103E2000DCD1B9E78C1C2C608C784CB1012CD5D13D
:103E3000CC1C2C60CC78032CCAD0002CC8D0CDE789
:103E4000CC1C2C60CC780F2C0AD10C1D2C600C796A
:103E5000022CA1D04FF0040E0A2CBFD104E000BF09
:103E60004FF0030E0A2CB9D102EB0E04CDF804C0BA
:103E7000C446D846CB4604EB060906EB0E041444B0
:103E800001342C6099F80140D946C346E046DDF87C
:103E900004C0002C3FF480AF452C9FD17CE700BFCD
:103EA000DAF8B001A0EB0A00A0F5DA70CAF8300227
:103EB000002003B0BDE8F08F072003B0BDE8F08F0D
:103EC00070B50D46497A04460A09062A30D80FF221
:103ED000080000EB8200874600F012B800F028B816
:103EE00000F022B800F024B800F004B800F020B8C8
:103EF00000F000B808075CBF012070BD18E000BFEB
:103F0000E87A0F2814D80122824048F208531A4256
:103F100004D008075CBF002070BD09E040B9080765
:103F20005CBF012070BD03E008075CBF002070BDCE
:103F300026683078082819D0042829D1701C40F24E
:103F4000D4012060C2F20001CA68D6F801301268BC
:103F5000934223D0096900680A68052190424FF016
:103F6000010020D03144216070BD00BF701C40F2C0
:103F7000D4012060C2F2000149680822FCF796FBD8
:103F80004FF0090170B101203144216070BD00BFC4
:103F9000012101203144216070BD00BF05210020B6
:103FA00001E000BF032028730020687331442160C2
:103FB00070BD00000A46897AB1B1012928D1D17AB1
:103FC000032927D021BBD0F8A8110B7843F00403B4
:103FD0000B7040F2A011C2F200010B6844F2E9211B
:103FE000C0F60001184700BFD17A08291ED00F295A
:103FF00028D00A290CD1D0F8A8110A7802F0FB02C7
:104000000A7041F6F411C2F200014968084700BF86
:1040100002207047D0F8A8110A7842F004020A7012
:1040200040F2A011C2F2000149680847D0F8A81177
:104030000A7842F004020A7041F6F411C2F200015B
:1040400089680847D0F8A8110A7842F004020A707B
:1040500041F6F411C2F20001096808472DE9F04168
:1040600081680446087840F2A81600F08702C2F280
:104070000006812A707178D110F0700075D0481C4C
:10408000A060487800F0F802802AB0716DD18A1CD7
:10409000A26000223261B2604203B2818A7852018A
:1040A00042EA4030CA1CB081A260CA7840EAD2001D
:1040B000B081CA7887B202F00702130633610B1D84
:1040C000A3600B79B7F5805F4FEA034343EA0262CE
:1040D00001F105033261A3604B7942EA032201F149
:1040E00006033261A3608B7902EB0300306101F1BA
:1040F0000700A06002D1006817E000BFC87902067F
:10410000B26001F10802A2600A7A120442EA006079
:1041100001F10902B060A2604A7A40EA022001F18E
:104120000A02B060A2608A7A1044B06001F10B000C
:10413000A060C87A012818D840F27808C2F20008B6
:10414000D8F808200C31F071A1609047A7683D783D
:10415000092D0AD8781C01212A46FCF7D3FA20B190
:10416000E919481CA060497831B1B0690421017097
:104170000C20BDE8F08100BF411CB069A16001784E
:10418000032919D0022959D001291CBF0D20BDE8EF
:10419000F081D6E904214B6893421ED10A88B38985
:1041A0009A421AD1B2688968511AFF2915D204219E
:1041B00001700E20BDE8F081D6E9041042688A4201
:1041C0000BD10188B289914207D1B1688068081A81
:1041D000FF283CBF0A20BDE8F081D8F83C008047AA
:1041E00080EA401080EAD03080EAC02121F001311D
:1041F0000A0E72700A0C090A40F0010040F2041520
:10420000B270F1703071C2F200057069D6F8011019
:104210002A68C160904768688047D6E90401B2689F
:104220004860B089B3690880D6F801008A60C4F894
:10423000A101022018700020BDE8F081D6E9041029
:1042400042688A42C9D10088B1898842C5D1D6F86E
:104250000100C4F8A1010020BDE8F08110B581681B
:104260000446087802284FF0020018BF10BDD4F8A9
:10427000B0210131A1601070D4F8B011A3680131F0
:10428000C4F8B0111A78742A1ED82068E31A1844AA
:10429000103090429CBF022010BD0A70D4F8B001CB
:1042A000A1680130C4F8B00111F8012BFCF734FA11
:1042B000A068D4F8B01102781144C4F8B0110178A4
:1042C00008440130A060002010BD000080B5897A4C
:1042D00011B981680B780BB1022080BD013181607A
:1042E0009047002080BD00002DE9F04381B00446D6
:1042F00080680078112853D80D46D4F8B0110870A2
:10430000A068D4F8B01110F8017BA060481C002F01
:10431000C4F8B00148D040F2041904F59078C2F214
:10432000000910E0B26806F10C01FCF7F5F9B0687D
:10433000D4F8B011013F0844C4F8B001A0EB080064
:10434000C4F8140130D0A168D9F81020A87A0978EF
:104350009047A1680646481CA0600EB3D4F830020E
:10436000B1680844033079281AD8B078D4F8B0116D
:104370000870D4F8B001F278411CC4F8B011427052
:10438000D4F8B001317901300129C4F8B001C9D1A4
:10439000B1680170D4F8B0010130C4F8B001C1E7D0
:1043A000022001B0BDE8F083002001B0BDE8F08339
:1043B0002DE9F041A2B00DF104080E460446002597
:1043C000404679211746CDE92055FCF7F2F90095D2
:1043D000A0680078112853D1D4F8B00112210170DF
:1043E000D4F8B001A168451C481CA060204639469D
:1043F000C4F8B051B04718B122B0BDE8F08100BF99
:10440000D4F8B0012946401B0090009A4046FCF7C2
:1044100083F90098A1680A6848F800200A794044A6
:104420000271009805300090481DA0604A79881DEF
:10443000A2F16F010829A0601ED240F20410C2F25E
:104440000000C768009901A820ABB847D4F8B001B4
:1044500004210170D4F8B001209A411CC4F8B011B5
:10446000C0F80120D4F8B0010430C4F8B001002035
:1044700022B0BDE8F08100BFA2F178000128DCD9AC
:10448000022022B0BDE8F081B0B5044640F2A81089
:10449000C2F200000322D0F8011084F8A62142796C
:1044A000C07940F2041584F8B6014CF20110C0F254
:1044B0000120C2F20005C4F8A11184F8B4219021B2
:1044C000C4F8B70110202A6984F8B51184F8BB013B
:1044D000012000219047C1682A69C4F8BC11008AF4
:1044E0001121A4F8C00140F20220A4F8C20100206A
:1044F00090478089296AA4F8C40140F20240A4F8D8
:10450000C6018847296A000E84F8C8018847296ACD
:10451000000C84F8C9018847296A000A84F8CA0196
:1045200088472A6984F8CB010020032190478089BD
:104530002A69A4F8CC0100200121904780892A69CA
:10454000A4F8CE0100200A219047808940F2780526
:10455000C2F20005A4F8D0011E20696CC4F8300234
:104560004FF496708847A86C80470020B0BD0000CB
:104570002DE9F041826812F8017B826097B340F226
:10458000041804460D46C2F200080CE0D8F81430B6
:104590002A7B30469847B168A268013F0A44A2606E
:1045A00008BFBDE8F081D8F81030A87A1178984794
:1045B000A2680646501CA06086B1F178007881425E
:1045C0000CD13079911C0128A160DFD1B068097845
:1045D000884203D1D11CA160D8E700BF0220BDE80A
:1045E000F08100BF0020BDE8F0810000B0B5816817
:1045F0000A78452A00D01ABB4A1C82604A78032AEE
:1046000001D3FF2A1CD10231022A81601AD0012A6B
:104610002CD0002A1CBF0020B0BD40F27800C2F2AE
:104620000000056A40F20410C2F200000269002096
:104630001221002490470D300221A8472046B0BD2A
:104640000220B0BD40F27800C2F20000056A40F2DC
:104650000410C2F2000002690020122100249047D9
:104660001F300821A8472046B0BD00BF40F27800A7
:10467000C2F20000056A40F20410C2F200000269B2
:10468000002012210024904716300721A847204619
:10469000B0BD00002DE9F04182B0044600208DF845
:1046A0000700A168087802284FF0020054D1D4F81E
:1046B000B0210131A1601070D4F8B011A0684A1C7B
:1046C000C4F8B02102788DF80720421C9DF807300D
:1046D000A2604678821CA26006EB860201324A7014
:1046E000D4F8B01101F10102C4F8B0214E70D4F831
:1046F000B021A16802F10102C4F8B0214EB3184400
:1047000040F20418C51EC2F2000800BF11F8010BE8
:10471000A0F16F03082BA16004D3A0F17801012957
:104720001ED800BF1070D4F8B021A168D8F8187056
:10473000531C2A46C4F8B031B84768B9A068D4F809
:10474000B02100F10C010432013EA160C4F8B02197
:10475000DCD1481DA060002002B0BDE8F08100BFA0
:10476000022002B0BDE8F0812DE9F04F81B041F6A2
:104770001024C2F2000494F8380203284ED842F6FE
:10478000952A40F6E41B40F2901804F1100704F556
:10479000907504F5DA76C0F6000AC2F2000BC2F298
:1047A000000804F58A70009004E000BF94F8380215
:1047B000042833D220464FF40D71FBF7FAFFDBF8E3
:1047C00000102046A760C4F81C51C4F8B061C4F8BA
:1047D00034A288470028E9D1D8F808102046884735
:1047E0000028E3D140F22819C2F20009D9F85C1080
:1047F00020468847D9F8601081468847B9F1060FEE
:10480000D4D894F810018006D0D5D8F80C10606880
:104810008847DBF8041000988847C7E740F278051E
:10482000C2F20005286D804740F2D416C2F200069D
:1048300070688047A86D8047696C64208847A86CC1
:104840008047296C012084F838028847B06801B09D
:10485000BDE8F04F0047000070B50446806800785E
:1048600017285ED1D4F8B00118210170D4F8B00136
:10487000A16801304A1CC4F8B001A26049780B2934
:104880004FD10B210170D4F8B001A16801304A1C4E
:10489000C4F8B001A2604A78012A2FD0002A40D182
:1048A0000231A16000210170D4F8B001A56846F67C
:1048B0006421461CC0F6000128460922C4F8B061F4
:1048C000FBF7F4FE68BB05F10900A06046F26350F7
:1048D000C7F27330C6F8030047F27350C6F2633074
:1048E000306040F2D411D4F8B001C2F20001C968BE
:1048F0000730C4F8B0018847002070BD0231A160C4
:1049000001210170D4F8B001A66846F65C21451C6F
:10491000C0F6000130460722C4F8B051FBF7C6FECE
:1049200010B1022070BD00BF40F27801C2F2000158
:10493000F01D8969A06028468847D4F8B00110307E
:10494000C4F8B001002070BDB0B5002944D04FF6C6
:10495000000CC0F6010C11F00302A1F1010E0DD004
:10496000634653F8045B0446012A44F8045B0BD108
:1049700071462046BEF1030F2ED31DE06346BEF103
:10498000030F29D318E000BFDCF80430022A43608B
:1049900008D1023908300CF10803BEF1030F1BD314
:1049A0000AE000BFDCF80820033982600C300CF10B
:1049B0000C03BEF1030F0FD3A3F11002103800BF98
:1049C00052F8103F043940F8103F53684360936831
:1049D0008360D368C360F3D10020B0BD2DE9F04FF0
:1049E00087B040F6EC17C2F20007019040F2080AC7
:1049F00042F6004B40F618494FF6FF760025384640
:104A00004FF48051FF22C4F2020AC4F2010BC4F237
:104A100001098DF81B508DF81A508DF81950ADF81A
:104A2000165004968DF80F50ADF80C50ADF80A50A2
:104A30004FF48054FBF7B5FE41F20408012047F81B
:104A400008004FF0FF3038538020C9F810004FF4B1
:104A50000060ABF82450CAF804000F2040F2780937
:104A60004AF8040CC2F20009D9F82C10012088473A
:104A700050460121FCF7DEF858460121FDF7CAFC3B
:104A800058464FF480610122FDF7CCFC57F808200E
:104A9000B5EBD22F40F09C804AF2F21041F2210C8B
:104AA00008E000BF8DF81B5057F80820B2F5006FE2
:104AB00080F08E8037F81230ADF80C30BDF80C3035
:104AC000B342F1D027F81260013247F80820BDF850
:104AD0000C203B5BD21AADF80A20BDF80C203A53EB
:104AE0009DF81B20002ADDD19DF81A2052008DF878
:104AF0001A20BDF80A20052A14D3BDF80A200F2A6F
:104B000010D801218DF81B109DF81A207E2A1BD188
:104B1000049A92B2824279D08DF81950ADF81650AD
:104B20000496C1E7BDF80A20102ABDD3BDF80A20BB
:104B3000192AB9D89DF81A2042F001028DF81A20DE
:104B40009DF81A207E2AE3D09DF81A2002F03F0239
:104B50003E2AA9D0049A52000492049A9DF81A3071
:104B600083EA1242D20703D0049A82EA0C0204922A
:104B70009DF80F2052088DF80F209DF81920013262
:104B80008DF819209DF81A20D20705D09DF80F2026
:104B900042F080028DF80F209DF81920082A7FF43A
:104BA00083AF8DF819509DF80F20BDF8163001998C
:104BB000CA54BDF816207F2A06D8BDF81620013247
:104BC000ADF8162070E700BFADF816506CE700BFD7
:104BD000D9F82C1000200026884740F61840C4F26F
:104BE00001008021016050460021FCF723F858465F
:104BF0000021FDF70FFC58464FF480610022FDF7BD
:104C000011FC304607B0BDE8F08F00BFD9F84C006A
:104C10008047D9F82C100020884740F618418020A2
:104C2000C4F20101086050460021FCF703F8584621
:104C30000021FDF7EFFB58464FF480610022FDF79D
:104C4000F1FBBDF81600861E304607B0BDE8F08FB8
:104C500070B504460020254640F2780645F8100B52
:104C6000C2F2000631682846884700282060F9D043
:104C7000F06B804701460020616070BD40F2281053
:104C8000C2F200000021C0E90011C0E90211C0E930
:104C90001401C0F8571070472DE9F04FA3B040F24F
:104CA000E414C2F2000420464FF40061FBF781FDDA
:104CB0002020E07006201121A060216340F2001145
:104CC000C4F8D00040F20010C2F61071C3F21440D4
:104CD000A16240F20011C4F8C80040F20010C3F213
:104CE000111140F20012C3F2166040F278092165FA
:104CF0000321C3F21222C4F8F00043F21770C2F28B
:104D00000009C4F88010A26740F20012A4F81A014A
:104D100043F6180084F84111D9F814104FF4807547
:104D20004FF0010A4FF00208C3F213324FF0040BA8
:104D3000A4F8420104F5A6702580C4F858A0C4F870
:104D4000A880C4F8A020C4F8F8B0C4F820B184F852
:104D50001CA184F819A1C4F848B184F844A188477B
:104D60000020C3F61A20C4F868010E20C4F8980188
:104D700040F20010C4F22000C4F890011C20C4F8D6
:104D8000C001C4F8E8010020C4F22220C4F8E00108
:104D90001420C4F81002C4F83802C4F860020020DD
:104DA000C0F27720C4F8580240F200100021C0F28F
:104DB0007F20C4F22111C4F8800240F20030C4F810
:104DC000B81140F20011C0F20120C0F27521C4F800
:104DD000A8024FF44850C4F8081240F27621A4F813
:104DE000B40240F20030A4F83212C0F20220D9F826
:104DF000141000220726C4F8D00204F53770C4F856
:104E0000708184F86C2184F8942184F8BC2184F8A2
:104E1000E42184F80CA284F834A2A4F8305284F877
:104E20005CA2C4F8886284F884A2C4F8B08284F8D2
:104E3000ACA2C4F8D8B284F8D4A2884740F20030BB
:104E4000C0F20320C4F8F80242F27360A4F804032D
:104E500040F20030C0F20620C4F8200340F20030D7
:104E6000C0F20720C4F848030020C0F20A20C4F8AA
:104E7000700340F200300021C0F21020C0F2122175
:104E8000C4F8980340F21120C4F8E81346F6E41180
:104E9000A4F8C2034FF44070C0F60001C4F82863C0
:104EA000A4F8C0034DF21D1091E84C0001F10C076D
:104EB000A4F8CC034FF01B0CA1CFC4E9FCC204F54D
:104EC0008062A1C2887E098B84F80E0440F2003013
:104ED000C0F21720C4F8100440F20030C0F22020C5
:104EE000C4F8380443F20840A4F844046F2084F85E
:104EF0006004702084F86904712084F872047220C0
:104F000084F87B04732084F88404742084F88D046E
:104F1000752084F89604762084F89F04782084F81D
:104F2000B104792084F8BA044CF2C240C0F2A770F0
:104F300022904AF61050C1F64F10219049F2C470E9
:104F4000CBF6157020904BF68310C7F216501F90C9
:104F50004EF65B10C3F215401E904BF65B70CFF21D
:104F600070101D9046F6FD50C6F66D501C9042F62E
:104F70009720C8F63B401B904FF24540CEF6A71055
:104F800017904FF29D20CCF2264016904CF225103F
:104F9000C0F20820159040F62A00C1F6BA701490AD
:104FA00049F2B070CDF2A130139044F63810C9F632
:104FB0002A60129041F62920CDF63B70119042F202
:104FC0000730C5F6A100109046F66800C2F6AB2087
:104FD0000F9048F29830C6F604300E9046F20D70ED
:104FE000C4F65D100D904AF27670C4F20E300C904B
:104FF00041F6A470C4F651100B9049F66460CCF2EF
:1050000043400A9042F28650C7F62570099049F253
:105010009E40C1F2BA6008904CF23420C5F6BA0046
:1050200007904AF20840C9F69E50069047F6A270D3
:10503000C7F69820059042F26400C8F2EA30049066
:105040004FF67560CEF6BA10039047F27330C6F68D
:10505000020002904EF27500CBF22030019045F232
:10506000BC10C9F6CB60A4F80C14009094F8A00111
:1050700094F89C1194F89D21484094F8A111C4E93A
:10508000FE3694F89E318DF8640081EA020094F8AF
:10509000A21194F89F718DF8650081EA030094F8DD
:1050A000A3118DF8660081EA0700217B8DF8670067
:1050B000607B8DF86810A17B8DF86900D9F82870A5
:1050C000002019AD8DF86A108DF86B0004F2614272
:1050D0001FA928460023C4F8008384F8FCA284F8A2
:1050E00024A3C4F850B384F84CA3C4F8788384F89C
:1050F00074A3C4F8A08384F89CA3C4F8C88384F87C
:10510000C4A384F8ECA3C4F8188484F814A4C4F8E5
:10511000408484F83CA4B847D9F8287004F26A4265
:105120001BA928460023B847D9F8287004F2734217
:1051300014A928460023B847D9F8287004F27C4205
:1051400010A928460023B847D9F8287004F28542F0
:105150000CA928460023B847D9F8287004F28E42DB
:1051600008A928460023B847D9F8287004F29742C6
:1051700004A928460023B847D9F8287004F594629A
:10518000694628460023B84794F8CC0394F8CD1319
:105190008DF850008DF852008DF854008DF85600AF
:1051A0004DF63120C0F6FD60229046F2B070C4F694
:1051B0004570219045F6C200CBF2A450209047F2F2
:1051C000C200CDF65B201F904BF2C200CBF2C26052
:1051D0001E904AF6D650CFF654001D9049F210406A
:1051E000CAF225201C9047F2C160C2F22A60D9F8A9
:1051F000287014AD8DF851108DF853108DF855109E
:105200008DF857101B9004F2B2421FA928460023C4
:10521000B847D9F8287004F2BB421BA928460023DE
:10522000B84740F60310CEF20760C4F8C70444F64E
:105230004C10C4F25A10C4F8C30449F26500C7F216
:105240007360D9F81C20C4F8EC0420464FF4FF71B9
:105250009047D4F8F817C4F8FC07481CC4F8F807BE
:1052600023B0BDE8F08F000040F62400C4F2000037
:105270000021A0F8001401807047000041F22400D2
:10528000C4F20000002101807047000040F2D40009
:10529000C2F20000816849075CBF81685FEA8171E2
:1052A00016D5816811F4FF6F12D08168C90706D046
:1052B0008168C90444BF81685FEA015112D48168E2
:1052C000C9070FD18168C9040CD4806801207047D8
:1052D000816849075CBF81685FEA817104D500205D
:1052E000704700BF01207047816811F4FF6FF6D14D
:1052F000DBE7000070B582B040F2A811C2F20001F5
:1053000000208969ADF806000D78032D33D340F2F3
:105310000414C2F20004226900200A219047057398
:1053200040F27805C2F20005696B0DF1060088476E
:1053300022699DF8076000201721904706732269B3
:105340009DF8066000201721904740F2E414467350
:10535000C2F20004D4F8F807EA690130C4F8F8078B
:1053600020464FF4FF7190472A69C4F8FC07204695
:105370004FF40071904702B070BD0000F0B581B0ED
:105380004FF600060C460546C0F60106FCF748FB42
:105390003046FCF73DF80746FCF7A0F9062F15D17B
:1053A000FCF73EFBB4B100BF29683046FCF7A0F91A
:1053B00006280FD1013C05F1040506F10406F3D1DE
:1053C0000024FCF78BF9204601B0F0BD07242046ED
:1053D00001B0F0BD0724FCF781F9204601B0F0BD13
:1053E00010B540F2D402C2F2000202F124030128F7
:1053F00008BF02F118031B680128A3F1010E02F196
:105400002C0308BF02F12003D3F800C0002304E0FE
:1054100028BF10BD531C73450DD80EEB0300420886
:1054200002EB82000CEBC00084788C42F0D9A2F130
:10543000010E7345F1D9002010BD000080B58378BE
:10544000112B17D01BB3112B09D140F2D40CC2F28F
:10545000000CDCF8083043F00403CCF80830437843
:10546000934284BF012080BD82680C30FBF754F961
:10547000002080BD40F2D40CC2F2000CDCF80830F1
:1054800043F00103CCF808308378002BDBD140F2E5
:10549000D40CC2F2000CDCF8083043F00203CCF864
:1054A00008308378112BDAD1CFE700002DE9F04FD7
:1054B00085B040F2D40BA0F16F040020C2F2000BC3
:1054C000CDE90200DBF814000E46DBF8001040F2D4
:1054D000780A00BAC2F2000A04EBC4050290DAF8B6
:1054E0002470481998469146411C02A86A46002338
:1054F000B84730680099814204D00126304605B093
:10550000BDE8F08FDBF80010DAF82470294401318F
:10551000301D0A460123B847072C0BD8DBF80810CA
:105520000822A240DBF808001143C90861F3CA0051
:1055300008E000BFDBF80800092C14BF40F48050DD
:1055400040F40060CBF80800D9F800000026CDE94F
:105550000206DBF80000DAF824702844411C02A897
:1055600042460023B847304605B0BDE8F08F000042
:105570002DE9F0418CB00E2100284FF0200043F2BD
:105580002C4241F6504740F21C0408BF132108BFCB
:105590001820C4F20102C2F20007C4F20204118012
:1055A000C7F88800204600214FF020080026FBF7AE
:1055B00041FB01AD2846FBF773FB2046FBF7D6FA0B
:1055C00040F61800C4F20100CDE90107102003AA3B
:1055D000D7F8881043C2802006904FF400700790DF
:1055E0004FF40060CDE908084FF48050CDE90A0679
:1055F00020462946FBF72AFBA4F11C01382022464D
:105600000123FBF747FB0CB0BDE8F081F0B585B096
:1056100041F20004C4F200040546204600210027A0
:10562000FCF7F8FE204601210022A784FCF7EAFEE1
:105630003320C0F20010049004A8FCF7DFFA6E4695
:105640003046FDF7BBF847F2305000902046314617
:10565000ADF80450ADF80670FDF7BCF82046012106
:10566000FCF7CCFE05B0F0BD2DE9F04184B040F66A
:105670000004C4F2000440F2000804F580656E46A0
:105680000027CFF6FF7828463146ADF80070ADF818
:105690000670CDF80280FDF79DF83046FDF78EF8D4
:1056A0001D20ADF8000020463146ADF80670CDF85B
:1056B0000280FDF78FF828460521FDF773F928468B
:1056C0002021FDF759F920468021FDF75BF920469E
:1056D0002021FDF75FF940F62440C4F20000078066
:1056E00028460121A784FCF795FE20460121FCF7FE
:1056F00091FE04B0BDE8F08110B541F20004C4F29F
:10570000000420460121FCF785FE204601210122EC
:10571000BDE81040FCF776BE10B541F20004C4F2BB
:10572000000420460021FCF775FE204601210022DE
:10573000BDE81040FCF766BE40F2D400C2F20000A3
:10574000406970472DE9F04F83B041F65049C2F2ED
:105750000009D9F888200291022A019080F06A831A
:1057600043F20044C4F201044FF0000B40F2780011
:10577000C9E920BBA4F824B0C2F20000016B40F2DA
:10578000000A0120C4F2020A884720464FF48071C3
:105790000122FCF747FE20460121FCF73BFE0AF1FF
:1057A0001C0001210090FBF745FAFF206FF0020C6E
:1057B0004FF0F00E80234FF40007DAF8001011F0DC
:1057C000600F14D02BE000BFD9F884100BF1010B4F
:1057D00048EA4101BBF1080F4FEA5000C9F88410B4
:1057E00000F08880DAF8001011F0600F17D100BFC8
:1057F000DAF8001011F0600F11D100BFDAF80010D4
:1058000011F0600F0BD100BFDAF8001011F0600F3B
:1058100005D100BFDAF8001011F0600FE7D0DAF818
:105820000020D9F8881052064A4600F001080CEA18
:10583000410458BF2244CAF804E0D9F88040B8F1C6
:10584000000F04BF84F00104C9F8804034B3042978
:10585000BAD3002402EBC40142F834704B60D9F88B
:105860008850661CB6EB950FAED28F60CB60D9F82E
:105870008850A61CB6EB950FA6D20F614B61D9F8E4
:105880008850E61CB6EB950F9ED28F61CB61D9F89C
:1058900088100434B4EB910FDCD395E7042993D33B
:1058A000002400BF02EBC40142F834304F60D9F845
:1058B0008850661CB6EB950FBFF486AF8B60CF6047
:1058C000D9F88850A61CB6EB950FBFF47DAF0B61DD
:1058D0004F61D9F88850E61CB6EB950FBFF474AF52
:1058E0008B61CF61D9F888100434B4EB910FD9D310
:1058F0006AE700BF00206FF0020C4FF0F00E80232B
:105900004FF40007DAF8001011F0600F0ED025E018
:10591000D9F88410013049000828C9F8841000F033
:105920008180DAF8001011F0600F17D100BFDAF8AB
:10593000001011F0600F11D100BFDAF8001011F063
:10594000600F0BD100BFDAF8001011F0600F05D125
:1059500000BFDAF8001011F0600FE7D0DAF800604D
:10596000D9F88810CAF804E07606D9F880400CEA25
:1059700041054E4658BF2E4494F00105C9F88050A9
:1059800026D00429C4D3002406EBC40146F83470A1
:105990004B60D9F88820651CB5EB920FB8D28F60A8
:1059A000CB60D9F88820A51CB5EB920FB0D20F615F
:1059B0004B61D9F88820E51CB5EB920FA8D28F6116
:1059C000CB61D9F888100434B4EB910FDCD39FE796
:1059D00004299DD3002400BF06EBC40146F83430EF
:1059E0004F60D9F88850621CB2EB950F90D28B6053
:1059F000CF60D9F88820A51CB5EB920FBFF488AF13
:105A00000B614F61D9F88820E51CB5EB920FBFF40C
:105A10007FAF8B61CF61D9F888100434B4EB910F5C
:105A2000DAD375E74FF07E0B00216FF0020C4FF0D8
:105A3000F00E80274FF40006DAF8002012F0600F15
:105A400011D028E0D9F88400013148EA4000082943
:105A50004FEA5B0BC9F8840000F08880DAF8002078
:105A600012F0600F17D100BFDAF8002012F0600FBB
:105A700011D100BFDAF8002012F0600F0BD100BF87
:105A8000DAF8002012F0600F05D100BFDAF800202C
:105A900012F0600FE7D0DAF80030D9F888205B0602
:105AA0004B460BF001080CEA420458BF2344CAF8E5
:105AB00004E0D9F88040B8F1000F04BF84F001047D
:105AC000C9F8804034B3042ABCD3002403EBC402D9
:105AD00043F834605760D9F88800651CB5EB900F27
